:020000040800F2
:1000000000500020D54F00081D5000081D5000086A
:100010001D5000081D5000081D5000080000000081
:100020000000000000000000000000001D5000085B
:100030001D500008000000001D500008A7430008E4
:100040001D5000081D5000081D5000081D500008DC
:100050001D5000081D500008994400089F440008E6
:10006000A5440008AB440008B14400081D50000836
:100070001D5000081D5000081D5000081D500008AC
:100080001D5000081D5000081D500008B91600083A
:10009000AD1600081D5000081D500008B7440008A8
:1000A0001D500008A93600081D500008BD36000884
:1000B000C1360008D5360008E93600081D50000892
:1000C0001D5000081D5000081D5000081D5000085C
:1000D0001D500008854C00089D4C0008B94C0008D4
:1000E000CD4400081D500008BD16000800000000A7
:1000F0000000000000000000000000000000000000
:0C01000000000000000000005FF808F1A3
:10010C00034613F8012B002AFBD1181A013870474B
:10011C0010B5054C237833B9044B13B10448AFF335
:10012C0000800123237010BDFC01002000000000A2
:10013C00B854000808B5034B1BB103490348AFF38F
:10014C00008008BD0000000000020020B854000828
:10015C0007B503688DF8071001225B680DF10701E4
:10016C00984703B05DF804FB014800F0C3B800BF2A
:10017C00100500202DE9F0410E4617461546DFF814
:10018C003880ADB100F070FD90B1404600F0B2F88F
:10019C00A84228BF284604460028F3D03146224600
:1001AC00054800F0C8F82D1B264400F07DFDE8E75B
:1001BC00781BBDE8F08100BF10050020014800F05D
:1001CC005CB900BF4A04002010B5044800F07EF969
:1001DC00044600F09FFD204610BD00BF4A040020DD
:1001EC002DE9F84306460F46154694B204F0AAFFD3
:1001FC00DFF83490F06022463946484600F0C3F9E7
:10020C008046A4EB0804A4B200F084FD47443CB142
:10021C0004F098FFF368C01AB3689842EBD32D1B17
:10022C002846BDE8F88300BF4A0400202DE9F04FB2
:10023C0085B00646884617461C469DB204F082FFE0
:10024C00DFF84CA0F0600DF10E092B463A46414602
:10025C005046CDF8009000F0DCF9834600F05AFDD2
:10026C00BDF80E30ED1AADB21F44BBF1000F04D037
:10027C00641B204605B0BDE8F08F002DF9D004F0CA
:10028C0061FFF368C01AB3689842DED3F0E700BF91
:10029C004A040020014800F050B900BF4A04002075
:1002AC0010B5034C204600F035F80028FADC10BDE0
:1002BC001005002000F0B4BC08B50A2004F044FF7F
:1002CC00014B187808BD00BF490400204FF47A7226
:1002DC000021034BC3E90112024A1A60704700BFA8
:1002EC0018020020D85400080023A0F88230A0F88F
:1002FC0080307047B0F88230B0F880209BB292B258
:10030C00981A7F30434203F07F0300F07F0058BF00
:10031C0058427047B0F88030B0F882209BB292B24D
:10032C0003F18000801A434203F07F0300F07F004A
:10033C0058BF58427047F8B5B0F880600446B6B262
:10034C00B0F88000C6F1800696420F46154680B282
:10035C000AD9204405F054F8B4F880301D4405F057
:10036C007F05A4F88050F8BD3246204405F048F8CB
:10037C002046AA1BB919EDE7B0F88020B0F88230FE
:10038C0092B29BB29A422BBFB0F88030B0F8823058
:10039C00B0F88220C3F1800328BF9B1A9BB20B805C
:1003AC00A0F88430B0F882309BB218447047B0F893
:1003BC008220B0F88430134403F07F03A0F882301D
:1003CC0070470023A0F8C230A0F8C030C023A0F8BA
:1003DC00C4307047B0F8C23082B09BB2ADF8063072
:1003EC00B0F8C010BDF8063089B29BB29942B0F893
:1003FC00C03002469BB21ED37F2B08D9B0F8C03058
:10040C009BB2802B09D1BDF806309BB22BB1B2F850
:10041C00C0309BB2D01802B07047BDF80630002037
:10042C009BB2402BF7D9B2F8C0309BB2A2F8C430C3
:10043C00A2F8C000EBE7BDF80610403389B28B423E
:10044C00E5D30020E7E7B0F8C030194489B2A0F832
:10045C00C010B0F8C020B0F8C43092B29BB29A422F
:10046C0024BFC023A0F8C430B0F8C0309BB2BF2B5F
:10047C0084BF0023A0F8C0307047B0F8C03082B001
:10048C009BB2ADF80430B0F8C43002469BB2ADF864
:10049C000630B0F8C210BDF8043089B29BB2994254
:1004AC0008D8BDF80430B0F8C2209BB292B2981AAA
:1004BC0002B07047BDF80600BDF80410B2F8C230A7
:1004CC0080B289B29BB20844C01AF1E7B0F8C020E0
:1004DC0082B092B2ADF80420B0F8C420034692B2B8
:1004EC00ADF80620B0F8C210BDF8062089B292B261
:1004FC00914204BF0022A0F8C220B0F8C210BDF88F
:10050C00042089B292B2914214D0B0F8C22092B2B7
:10051C00511C89B2A0F8C210B3F8C210805CBDF8AF
:10052C00062089B292B2914202D30022A3F8C220D3
:10053C0002B070474FF0FF30FAE7B0F8C03082B02D
:10054C009BB2ADF80430B0F8C4309BB2ADF80630B5
:10055C00B0F8C220BDF8063092B29BB29A4224BFCA
:10056C000023A0F8C230B0F8C220BDF8043092B21B
:10057C009BB29A420FBF4FF0FF30B0F8C2309BB223
:10058C00C05C02B0704737B50446B4F8C0300846BA
:10059C009BB2ADF80430B4F8C4309BB2ADF8063061
:1005AC00B4F8C210BDF8063089B29BB2994224BF90
:1005BC000023A4F8C230B4F8C210BDF8043089B2DC
:1005CC009BB2994294BFBDF80450BDF80650B4F8E4
:1005DC00C230B4F8C210ED1AADB2954228BF154620
:1005EC0089B22A46214404F00BFFB4F8C2302846E5
:1005FC002B449BB2A4F8C230B4F8C220BDF806302C
:10060C0092B29BB29A4224BF0023A4F8C23003B02A
:10061C0030BDF7B51C46B0F8C030089D9BB2ADF8A4
:10062C000430B0F8C4309BB2ADF80630B0F8C260FC
:10063C00BDF80630B6B29BB29E4224BF0023A0F890
:10064C00C230B0F8C260BDF80430B6B29BB29E4264
:10065C0094BFBDF80430BDF80630B0F8C2609B1BE7
:10066C009BB2A34228BF23460024B0F8C260B6B2A6
:10067C000644A7B2BB4210D82B80B0F8C22013445A
:10068C009BB2A0F8C230B0F8C220BDF8063092B2CE
:10069C009BB29A4220D2002018E016F804C08C4578
:1006AC0016D1B0F8C2309BB201333B449BB2A0F8D8
:1006BC00C230B0F8C220BDF8063092B29BB29A425A
:1006CC0024BF0023A0F8C23001202F8003B0F0BD5E
:1006DC0002F804C00134CCE70023A0F8C230DAE7FA
:1006EC00D0F8D43210B500EB8300D0F8C0428CB1F6
:1006FC00D0F8C4321BB194F80002FF2801D10020BD
:10070C0010BD9B68214694F801229847FF2384F87A
:10071C000032F4E70320F3E70A2303800048704714
:10072C000401002070B5832106460F4800F076FCCA
:10073C00012105460C4800F071FC822104460A4850
:10074C0000F06CFC0DB11022AA711CB14022227178
:10075C000022627118B140220271002242714323BF
:10076C000148338070BD00BF0000002070B58321AC
:10077C0006460F4800F052FC012105460C4800F0DB
:10078C004DFC822104460A4800F048FC0DB11022B1
:10079C00AA711CB1402222710022627118B1402250
:1007AC0002710022427143230148338070BD00BFA7
:1007BC004400002070B5832106460F4800F02EFC43
:1007CC00012105460C4800F029FC822104460A4808
:1007DC0000F024FC0DB11022AA711CB10022227170
:1007EC000222627118B1002202710222427143236B
:1007FC000148338070BD00BF8800002038B5D0F8A8
:10080C00D4320446B03350F823508DB100F0DEFFE3
:10081C00D4F8D432C5F80C0204EB8304D4F8C432F7
:10082C00D5F80402DB6805F503719847002038BD44
:10083C000320FCE7F8B5D0F8D4620A4600EB860634
:10084C00D6F8C052D0F8C87225B3142401F00F0C9E
:10085C0004FB0C04A3697BB14FF0280E0EFB0C7744
:10086C003F6AB3FBF7FC07FB1C332BB91A46A36199
:10087C0000F09EFF0020F8BD0023C5F81432D6F816
:10088C00C4321B69002BF5D0D5F8080205F50471AC
:10089C009847EFE70320EEE7F7B50022D0F8D43203
:1008AC00044600EB8303D3F8C0620D468DF8052097
:1008BC00ADF80620002E65D091F800C01CF0600247
:1008CC0029D0202A5AD1CA884F78F2B11CF0800F57
:1008DC000ED0D3F8C432314638469B689847EA8824
:1008EC003146072A28BF0722204600F0FBFD09E00D
:1008FC00402A28BF4022314686F8007286F8012231
:10090C0000F005FE002003B0F0BDD3F8C432384629
:10091C009B689847F6E74B780B2B2FD801A252F81F
:10092C0023F000BF610900081109000889090008BB
:10093C008909000889090008890900088909000843
:10094C00890900088909000889090008710900084B
:10095C008109000890F89C32032B0FD102220DF173
:10096C000601C1E790F89C32032B07D101220DF14F
:10097C000501B9E790F89C32032BC3D029462046D9
:10098C0000F083FD0320BEE738B504460025822124
:10099C0000F0E1FE01212046A4F84C5000F0DBFEF3
:1009AC0083212046A4F8785100F0D5FED4F8D43237
:1009BC00256604EB8303D3F8C02252B1D3F8C432BA
:1009CC005B689847D4F8D432B03344F82350C4F859
:1009DC00BC52002038BD0000F8B504462C4D4FF435
:1009EC0007720021284604F089FCD4F8D432B033C5
:1009FC0044F82350237CC4F8BC52CBBB4FF4007397
:100A0C0082210222204600F09CFE01214FF400734B
:100A1C00A4F84C100222204600F093FE012610236D
:100A2C00002703228321A4F8623020460823A4F86F
:100A3C00786100F086FED4F8D432A4F8606004EB40
:100A4C008303D3F8C432C5F804721B689847D5F8F1
:100A5C000422C5F81472C5F81872B2B1237C93B98C
:100A6C004FF400733146204600F0A9FE0020F8BD7B
:100A7C00402382210222204600F063FE0121402304
:100A8C00A4F84C10C6E74023ECE70220EFE700BFC8
:100A9C002802002039B1D0F8D43200EB8300C0F822
:100AAC00C4120020704703207047D0F8D432B03302
:100ABC0050F823302BB10020C3F80812C3F81022D1
:100ACC00704703207047D0F8D432B03350F823303D
:100ADC001BB10020C3F80412704703207047D0F8F4
:100AEC00D43210B5B03350F823207AB1D2F8144276
:100AFC0001236CB9C2F81432D2F810328221D2F828
:100B0C000822036400F054FE204610BD0320FCE7CD
:100B1C001846FAE7D0F8D42208B5B03250F82220A3
:100B2C0062B1037CD2F8042233B94FF40073012173
:100B3C0000F045FE002008BD4023F8E70320FAE74B
:100B4C00D0F8D42208B5B03250F8223033B100239B
:100B5C0001211A4600F033FE002008BD0320FCE7FB
:100B6C000020704721280ED022281DD0202808D123
:100B7C000A68184B1A600A791A714A795A718A797B
:100B8C009A7100207047134B1A680A701A68120A7F
:100B9C004A705A888A70DA78CA701A790A715A7946
:100BAC004A719B798B71ECE70B4A4B8812780B4995
:100BBC00002A14BF1A46012202F001020A700A78B8
:100BCC0012B10021064A1160064AC3F340031370A8
:100BDC00D7E700BF100100202D01002049040020A0
:100BEC00440400204804002010B5094C0948FFF7C4
:100BFC007BFB2046FFF7E5FB0122074B20461A70D2
:100C0C00FFF7E8FB01460548FFF75DFF002010BD2C
:100C1C004A040020100500202C010020980500201B
:100C2C0010B50C4C22789AB90B490C4800F0A4F87A
:100C3C0070B90B49094800F0B2F848B9094907489E
:100C4C00FFF728FF20B9054800F0C2F801232370F4
:100C5C0010BD00BF96050020600100209805002003
:100C6C00CC0000201801002038B50C4B0C4D1C6832
:100C7C003CB995F89C32032B0CD0002000F00100FD
:100C8C0038BD00F0CBFE95F89C32032BF5D1001B40
:100C9C000228F2D8034B1878C0B2EFE744040020C6
:100CAC00980500204904002037B50F4CD4F8BC320D
:100CBC00D3F81432ABB90D480DF10601FFF75CFB0C
:100CCC00BDF80630054663B100F0A8FE084B294676
:100CDC001860BDF806202046FFF7E7FE2046FFF718
:100CEC00FEFE03B030BD00BF9805002010050020AB
:100CFC004404002010B50024044B05481C60FFF789
:100D0C0056FBFFF7D1FF204610BD00BF4404002066
:100D1C001005002038B50A4D2B780BB1002038BDDA
:100D2C000848FFF757FB01460028F7D00124064876
:100D3C002C70FFF7C8FE0448FFF7ECFE2046EEE7E8
:100D4C002C0100204A0400209805002008B50988D1
:100D5C000648FFF778FB0022054B1A70FFF7DAFF05
:100D6C0010B90448FFF7ECFE002008BD4A0400202F
:100D7C002C0100209805002078B10023C0F8B8326F
:100D8C00C0F8C432C0F8D03209B1C0F8B412012393
:100D9C00027080F89C3200F0A1BC03207047002345
:100DAC0013B50446ADF8063081B1CB6AC0F8B81261
:100DBC0023B10DF106009847C4F8D0020020D4F8F6
:100DCC00D8320133C4F8D83202B010BD0320FBE78F
:100DDC0000F0B0BCD0F8B8320BB11B6818471846FD
:100DEC00704708B5D0F8B8325B689847002818BF30
:100DFC00032008BD38B500F2AA250446284600F0A9
:100E0C0039FB012394F8AA12C4F89432B4F8B03226
:100E1C00C4F8983201F01F03012B08D0022B0CD020
:100E2C008BB929462046BDE8384000F015B9294653
:100E3C002046BDE8384000F053BA29462046BDE8AC
:100E4C00384000F07ABA2046BDE8384001F0800105
:100E5C0000F088BC70B50446164609BBD0F8943235
:100E6C00032B0CD1D0E9573293420AD99B1A9A42E0
:100E7C0028BF1A463146C0F85C3100F055FB002003
:100E8C0070BD90F89C32032B06D1D0F8B8321B6998
:100E9C0013B1C0F8D4129847204600F04DFBEEE792
:100EAC0090F89C32032BEAD1D0F8B8329B69002B16
:100EBC00E5D0BDE870400022C0F8D422184770B5C8
:100ECC00044616460D4600293DD1D0F89432022B2B
:100EDC000ED1D0E90732934212D99A1A3146C26127
:100EEC0000F00DFB2B462A462946204600F067FCF5
:100EFC0094F8A03213B1002384F8A032002070BD06
:100F0C000CD18269934209D8D0F898329A4205D212
:100F1C000A4600F0F4FAC4F89852E3E794F89C32CD
:100F2C00032B08D1D4F8B832DB6823B10022204659
:100F3C00C4F8D42298478021204600F013FC2046A8
:100F4C0000F005FBD4E790F89C32032BD6D1D0F8F7
:100F5C00B8325B69002BD1D0BDE870400022C0F8DC
:100F6C00D4221847F8B50123002180F89C32D0F820
:100F7C00B8320446C0F894124160C0F8A41280F84C
:100F8C00A012B3B9002600224025012711464023A8
:100F9C00204600F0D6FB2B46002280212046A4F8E8
:100FAC006471C4F8605100F0CCFB3046A784256214
:100FBC00F8BD5B68002BE5D098470028E2D00326EB
:100FCC00E1E701740020704790F89C32042B1EBF9F
:100FDC0090F89C32DBB280F89D32042380F89C326E
:100FEC000020704790F89C32042B02BF90F89D3281
:100FFC00DBB280F89C320020704708B590F89C2238
:10100C00032A05D1D0F8B83213B1DB6903B1984784
:10101C00002008BD002070470020704710B54288A2
:10102C0003789A4201D8002010BD04782044234450
:10103C0044789BB2052CF4D184788C42F1D1F3E73F
:10104C0010B50446802100F08DFB2046BDE8104011
:10105C00002100F087BB000073B50B78044603F049
:10106C006003202B0D4612D0402B10D0002B5AD1F0
:10107C004B78092B57D8DFE813F0020124015600F6
:10108C0016015600840016005600EC00A0002946FC
:10109C002046D4F8D432AE3354F823309B6802B0D7
:1010AC00BDE87040184700234988ADF806300B0A9C
:1010BC00013B062B37D8DFE803F0041C2936364FEA
:1010CC005900D0F8B4321B68207C0DF1060198470A
:1010DC00EA88002A00F0A080BDF806301BB39A42C3
:1010EC0028BF1A460146ADF80620204600F0FAF952
:1010FC001CE0027CD0F8B83232B99B6A0DF10600C4
:10110C00984702234370E3E7DB6AF7E7C9B2D0F8EC
:10111C00B432052918D8DFE801F0030D0F111315AF
:10112C005B68002BD0D12046FFF78AFF00252846AC
:10113C0002B070BD9B68F4E7DB68F2E71B69F0E76F
:10114C005B69EEE79B69ECE7DB69002BEBD00DF1FB
:10115C000602007C9847BBE7037C002BE3D1D0F858
:10116C00B8320DF106005B6B9847B1E7037C002B9E
:10117C00D9D1D0F8B8320DF106001B6B9847072374
:10118C00C0E78B88002BCED1CB88002BCBD14D88E0
:10119C007F2DC8D890F89C32032BC4D0E9B280F8CC
:1011AC009E1200F0FEFA204600F0C6F91DB1022393
:1011BC0084F89C32BAE70123FAE78978474D012974
:1011CC00297003D9FFF73CFF0325B0E790F89C3258
:1011DC00022BDEB208D0032E17D0FFF731FF2046CA
:1011EC002978FFF7FEFDEFE7B1B101214160FFF770
:1011FC00F1FD0546204625B1FFF722FF84F89C62DD
:10120C0095E700F099F90323D2E749B9022341602D
:10121C0080F89C32FFF7E5FD204600F08DF985E75C
:10122C0041680129F8D0C9B2FFF7DBFD29782046C7
:10123C006160FFF7CFFD05460028EDD02046FFF793
:10124C00FFFE20462179FFF7CCFD022384F89C3267
:10125C006DE7CA88012A7FF466AF90F89C120229C8
:10126C00CBB207D8002B3FF45EAF0146002341F808
:10127C00083F3AE7032B7FF456AF011D35E790F892
:10128C009C32013B022B3FF64EAFCA88022A7FF4F8
:10129C004AAFD0F8A4320146002B0CBF0123032324
:1012AC0041F80C3F21E74B88012B02D1C4F8A43242
:1012BC00B2E7022B7FF437AF8B881B0A80F8A03281
:1012CC00AAE790F89C32013B022B3FF62CAF4B88DF
:1012DC00012B7FF42BAF0023E8E700BF740800203C
:1012EC0038B50B78044603F060025B060D4601D559
:1012FC00402A1CD194F89C32013B022B17D8297937
:10130C002046022914D8FFF785FEA0B9D4F8B832CC
:10131C009B6883B1C4F8D402294620469847EA88D2
:10132C0022B918B9204600F007F9002038BD204634
:10133C00FFF786FEF9E70320F8E770B50B78044653
:10134C0003F06003202B0E468A880D7952D0402B77
:10135C0050D05BBB4B78012B3AD0032B1FD02BBB4F
:10136C0090F89C32022BD9B260D003291ED112F016
:10137C00800F4FF0140205F00F0302FB030365D03E
:10138C009B8C9BB1142605F07F0303FB0666064479
:10139C006B0667D1002302223146336052E090F88D
:1013AC009C32022BDAB237D0032A03D02046FFF747
:1013BC0047FE0BE04B8833B9690604D0F38813B9A8
:1013CC00294600F0CFF9204600F0B6F8002070BD99
:1013DC0090F89C32022BDAB21ED0032AE6D14B884D
:1013EC00002BF3D16B0602D0294600F0C2F920463F
:1013FC0000F0A2F829462046FFF70EFE0028E5D1A2
:10140C00D4F8B832C4F8D4029B68002BDED0314635
:10141C002046BDE8704018476A06C7D0294600F040
:10142C00A1F98021204600F09DF9CFE76906BDD1D6
:10143C00002312064FF002024CBF00F1140100F51C
:10144C00AA710B60204600F04DF8BFE7B3F8643189
:10145C00002BABD0142305F07F0603FB060606F524
:10146C00AA7695E72946204600F08AF9002891D003
:10147C00012390E70B7803704B7843704B884380C3
:10148C008B888380CB88C380704710B5044680213D
:10149C0000F068F92046BDE81040002100F062B968
:1014AC0070B50D4616460446A0B1FEF729FEC0B233
:1014BC00013080284FEA40038CBF4FF480739BB2FD
:1014CC0033802B70032300216B700223013C14F832
:1014DC00012F02B970BDEA545A1CD2B20233A9547E
:1014EC00DBB2F4E71346022210B5C0E90633C0F8AC
:1014FC0094220A46002100F05BF9002010BD08B5CB
:10150C0013460A46002100F053F9002008BD13468B
:10151C00032210B5C0E95633C0F894220A460021C4
:10152C0000F04DF9002010BD08B513460A46002105
:10153C0000F045F9002008BD08B504220023C0F8CE
:10154C00942219461A4600F033F9002008BD08B55C
:10155C0005220023C0F8942219461A4600F02FF9F0
:10156C00002008BD37B5244B026804469A4240D18E
:10157C00224D03E0A96803F061F90C352868431C7F
:10158C00F8D11F4B0121DA69132042F40002DA6111
:10159C00DB69002203F400030193019B00F056FA6F
:1015AC00132000F083FA00220121142000F04EFADF
:1015BC00142000F07BFAA37A012B1AD14FF480226D
:1015CC00104B2A205A61DA6822F48022DA609A6879
:1015DC0042F480229A601A6842F480221A6000F069
:1015EC0065FA00222A20114603B0BDE8304000F015
:1015FC002DBA03B030BD00BF005C0040C4550008DC
:10160C00001002400004014000F52671D0F8D4020D
:10161C00FFF7F0BB282303FB0103D0F8D402D3F867
:10162C006421FFF717BC282303FB0103D0F8D40275
:10163C005A6AFFF744BCD0F8D402FFF7DEBC10B5F1
:10164C000446D0F8D402FFF78DFCD4F8D402012163
:10165C00BDE81040FFF7B5BC10B50446D0F8D40275
:10166C00FFF7B2FCA37A23B1024A136943F00603D5
:10167C00136110BD00ED00E010B5837A044633B160
:10168C0000F044F9054A136923F006031361D4F8FA
:10169C00D402BDE81040FFF7A5BC00BF00ED00E090
:1016AC00014800F04BBB00BF78080020FFF7F8BFE3
:1016BC0008B5074B9B7A33B1064A136923F006032E
:1016CC00136100F023F94FF48022034B5A6108BDDB
:1016DC007808002000ED00E00004014070B50546DC
:1016EC0000F0F8F80423104C2371104BC4F8D452BA
:1016FC0023600223E380A3600023C5F8C842204680
:10170C00237300F08BFA054600B1FEE7084E7368B0
:10171C00328931882046013501F011F9052D06F189
:10172C000C06F4D1002070BD78080020005C00404D
:10173C008855000808B5D0F8C80200F0D2FA00208D
:10174C0008BD10B51446D0F8C8021A46234600F05E
:10175C00FFFF002010BD08B5D0F8C80201F028F832
:10176C00002008BD08B5D0F8C80201F080F80020B0
:10177C0008BD08B5D0F8C80201F0AFF8002008BDCC
:10178C00282211F0800FD0F8C8321BBF01F07F0166
:10179C0002FB013302FB0133987C08BF93F8520122
:1017AC00704708B5D0F8C80200F0B4FA002008BDA4
:1017BC0008B5D0F8C80201F042F8002008BD08B501
:1017CC00D0F8C80201F01CF8002008BDD0F8C802FF
:1017DC0001F02DB8122301480B8070474C010020FA
:1017EC00042301480B8070474801002000487047D3
:1017FC00500B0020002370B51E464D1CDCB2A242DB
:10180C0000D870BD040FB0F1204F34BF30343734E2
:10181C0001F81340000105F813600133EEE70000F6
:10182C001A2310B50B800A4BD3F8E807D3F8F0272E
:10183C0080180AD0D3F8EC4706490822FFF7DAFFE4
:10184C00042220461031FFF7D5FF034810BD00BF1E
:10185C0000F0FF1F300100202E01002010B5044CB9
:10186C000A4604482146FFF71BFE204610BD00BF68
:10187C00500C0020FC5400080A4608B5044920B955
:10188C000448FFF70DFE024808BD0348F9E700BF06
:10189C00500C00200F5500082E55000810B5044CB4
:1018AC000A4604482146FFF7FBFD204610BD00BF49
:1018BC00500C00204D55000810B5044C0A46044845
:1018CC002146FFF7EDFD204610BD00BF500C002057
:1018DC006855000808B521210C2002F0AFFF084B19
:1018EC000A201A68074B1B6BC3F30F23536103F0D9
:1018FC002BFCBDE8084020210C2002F09FBF00BF4C
:10190C0088010020B4580008FFF78AB908B502F026
:10191C004DFDBDE8084000F000B810B594B014229D
:10192C0000210CA803F0EAFC142200210DEB0200AC
:10193C0003F0E4FC1022002101A803F0DFFC0224D8
:10194C004FF480330122CDE91143CDE90A234FF442
:10195C00E0130AA80E92139301F00CF800B1FEE705
:10196C000F23CDE905344FF480630790CDE908309F
:10197C00214605A801F0C0F900B1FEE7122301933E
:10198C004FF40043CDE9033001A801F051FA00B146
:10199C00FEE714B010BD704738B50E4B05461A78EB
:1019AC004FF47A73B3FBF2F30B4A1068B0FBF3F00D
:1019BC0000F08AF8044658B90F2D09D8024629467A
:1019CC004FF0FF3000F042F82046044B1D6038BD4C
:1019DC000120FCE780010020A401002084010020EC
:1019EC00074A08B51368032043F01003136000F096
:1019FC001BF80020FFF7D0FFFFF7CDFF002008BD3C
:101A0C0000200240034A044B11681B780B441360FE
:101A1C00704700BF500D002080010020014B18685A
:101A2C00704700BF500D002007490302CA6803F439
:101A3C00E06322F4E0621204120C134343F0BF6320
:101A4C0043F40033CB60704700ED00E0154B30B52C
:101A5C00DC68C4F30224C4F10703251D042B28BF42
:101A6C000423062D4FF0FF3594BF0024033C05FAE8
:101A7C0003F321EA0303A54022EA0502A340002850
:101A8C0043EA0203ACBF00F16040074A4FEA03137C
:101A9C00DBB2ABBF00F5614000F00F0080F8003303
:101AAC00135430BD00ED00E014ED00E0002807DB1E
:101ABC0001234109034A00F01F00834042F8213002
:101ACC00704700BF00E100E00138B0F1807F0BD21D
:101ADC004FF0E023F021054A586182F823100020D2
:101AEC00072298611A6170470120704700ED00E0F1
:101AFC00002808DB01224309034900F01F00824043
:101B0C00603341F82320704700E100E0704708B5CE
:101B1C00FFF7FCFF08BD704710B5044650B1437980
:101B2C0003F0FF0213B90271FFF7F5FF0123002048
:101B3C00637110BD0120FCE790F821200346022AB6
:101B4C0006D0042282630120002283F820207047F3
:101B5C000268C06B116821F00E011160116821F050
:101B6C000101116001211A6C01FA02F2426000209D
:101B7C0083F82110E8E7000008B590F82130022B1B
:101B8C0003D004238363012008BD03681A6822F084
:101B9C000E021A601A6822F001021A60174A934268
:101BAC001FD0143293421ED0143293421DD01432E3
:101BBC0093421DD0143293421DD01432934214BF61
:101BCC004FF080734FF480130D4A5360012380F85B
:101BDC002130002380F82030436B03B1984700205C
:101BEC00D2E70123F0E71023EEE74FF48073EBE725
:101BFC004FF48053E8E74FF48033E5E708000240E8
:101C0C0000000240044A08B55169014202D05061FB
:101C1C0002F026FC08BD00BF00040140F8B50446E4
:101C2C00E0B190F8913203F0FF021BB980F89022DA
:101C3C00FFF798FC032384F8913200232546637147
:101C4C0055F8040B01F0B9FD95E80E00206801F081
:101C5C00A4FD014628B1022384F8913201252846BF
:101C6C00F8BD206801F0B3FD0028F4D1024601272D
:101C7C00267904F11003C1B28E4203F1280318D85F
:101C8C0000210A4604F5A873C8B2864203F1280362
:101C9C001BD895E80E00206801F09BFD0546002836
:101CAC00D9D101236073206884F8913202F046F890
:101CBC00D5E743E9062203F8277C03F8281C03F830
:101CCC00252C43F8102C0130D5E743E9062203F804
:101CDC00272C03F8280C03F8252C43F8102C013181
:101CEC00D2E738B590F890320446012B10D001257C
:101CFC0080F89052006801F057FD2946204600F00C
:101D0C0037FE206802F018F8002084F8900238BDE5
:101D1C000220FCE710B590F890220446012A0AD064
:101D2C000122417380F89022006801F0FFFF00202F
:101D3C0084F8900210BD0220FCE700002DE9F04F62
:101D4C00044685B0006801F0FBFF10F4004500F07C
:101D5C0054842825C54E2068B0F844301F0402D4A2
:101D6C0005B0BDE8F08FB0F8443013F00F0799B20E
:101D7C0040F0C08011F0100126D103889BB2334093
:101D8C0043F400430380B0F85030227C9BB203EB49
:101D9C00C20300EB4303B3F80434626AC3F30903D0
:101DAC001A44E36220466262FFF73DFC637B002B22
:101DBC00D1D0A26A2168002ACDD1637B43F0800385
:101DCC00A1F84C306273C6E70788BBB217F4006702
:101DDC0021D0B0F8503094F850219BB203EBC203E1
:101DEC0000EB4303B3F80C34B4F85621C3F30903E6
:101DFC00C4F86C3104F5267102F02AFA22682046E8
:101E0C00138823F070031B051B0D43F08003138014
:101E1C00FFF7FAFB9FE719049DD5038823F07003A5
:101E2C001B051B0D43F080030380B0F8503094F871
:101E3C0050219BB203EBC20300EB4303B3F80C3409
:101E4C00C3F30903C4F86C318BB1D4F8641171B1CC
:101E5C00B4F8562102F0FCF9D4F86431D4F86C21B2
:101E6C00394613442046C4F86431FFF7D3FB21688C
:101E7C000A8893B212053FF56EAF03F44053B3F5E5
:101E8C00405F3FF468AFB1F8502001F20C4092B2C1
:101E9C00835AC3F309038352D4F860313E2B1DD906
:101EAC005F09DB06835A08BF07F1FF379BB243EA91
:101EBC0087236FEA43436FEA53439BB283520B88E9
:101ECC0023F4804323F070031B041B0C83F4405356
:101EDC0043F4004343F080030B803CE70BB9835A77
:101EEC00E7E75F08DB07835A48BF01379BB243EA39
:101EFC008723E2E730F8273019041FFA83F840F102
:101F0C00F48030F8273005FB074123F070031B05E4
:101F1C001B0D43F0800320F8273091F85C3100F55D
:101F2C00806EBBB9B0F8503091F850219BB206339B
:101F3C0003EBC2033EF81390C9F30909B9F1000F82
:101F4C0000F0B8804B46B1F85621D1F8641102F07C
:101F5C007FF9AFE091F8533191F85021022B40F00A
:101F6C008780B0F850904FEAC20B1FFA89F918F429
:101F7C00804AD1F86831D94408F0400C3BD009F1C3
:101F8C0002093EF81990C9F3090999451FD8A3EB2A
:101F9C000903C1F86831EBB1BCF1000F0DD030F87A
:101FAC00223023F4E04323F070031B041B0C43F496
:101FBC00004343F0C00320F82230B9F1000F79D070
:101FCC00282101FB07414B46B1F85821BDE70023FE
:101FDC00C1F8683130F8223023F4804323F07003C9
:101FEC001B041B0C83F4005343F4004343F08003A5
:101FFC0020F82230D0E709F106093EF81990C9F310
:10200C00090999451FD8A3EB0903C1F86831E3B15D
:10201C00BCF1000F0DD130F8223023F4E04323F053
:10202C0070031B041B0C43F4004343F0C00320F863
:10203C002230B9F1000F3DD0282101FB07414B465E
:10204C00B1F85A2181E7C1F868A130F8223023F4A5
:10205C00804323F070031B041B0C83F4005343F4E4
:10206C00004343F0800320F82230D1E70F8FFFFFAD
:10207C0030F8223023F4E04323F070031B041B0CD4
:10208C0043F4004343F0C00320F8223091F8503160
:10209C0030F82320DB0012F4804FB0F8502092B2BD
:1020AC0054D0023213443EF81390C9F30909B9F124
:1020BC00000F88D105FB07F16318D3F86C214A4453
:1020CC00C3F86C21D3F864214A44C3F86421D3F8D3
:1020DC0068211AB1D3F86031994541D205FB074309
:1020EC00204693F85011FFF795FA18F0800F2068EE
:1020FC003FF431AE30F8273005FB07FC9BB2334080
:10210C0043F4004320F8273004EB0C03DA7C012A5B
:10211C0056D1002107FB0552A1501A7F92B318F03B
:10212C0040085A7C36D012BBB0F850201B7C92B2BF
:10213C001B0100F2044010441A5AC2F309021A524D
:10214C001A5A92B242F400421A521BE0063213445D
:10215C003EF81390C9F30909B9F1000FAAD06EE744
:10216C0001F5A8712068214401F000FEBDE7012AA9
:10217C0008D1B0F850201B7C92B200F204401B0135
:10218C0010441952282303FB0743197C2046FFF700
:10219C004AFAE0E53AB9B0F850201B7C92B21B0128
:1021AC0000F20C40C7E7012AECD1B0F850201B7CA0
:1021BC0092B200F20C401B01104423F80080E1E7BE
:1021CC00197C18F4807E9A6A4FEAC10A00F580697E
:1021DC001BD1B0F85070BFB25744023739F81770A2
:1021EC00C7F30907974202D3C3F828E0CEE7D21B06
:1021FC009A625A6A0CF110013A445A62DA6A214422
:10220C003A44DA6201F0B2FDA5E5B0F850C018F01E
:10221C00400E1FFA8CFCD44408F4804800F0F38084
:10222C000CF1020C39F81CC0CCF3090C94451BD3EF
:10223C0000229A625B7C1FFA88F8002B6BD0012B72
:10224C0040F08E80B0F850E000F2044C1FFA8EFE85
:10225C00F4440B012CF80320B0F850C000F20C40F1
:10226C001FFA8CFC60447AE0A2EB0C029A62B8F183
:10227C00000F40F090804FF0280808FB074898F8B2
:10228C003420012A40F00081D8F8242002EB0C0EF7
:10229C00C8F824E0DA6A6244DA62D8F83030D8F848
:1022AC0020209342C0F086809B1AC8F83030282337
:1022BC0003FB074393F811C093B2BCF1000F40F03D
:1022CC009580B0F8508000F2044C1FFA88F8C44492
:1022DC0009013CF801803E2AC8F309082CF801805A
:1022EC0074D94FEA5218D2063CF8012008BF08F105
:1022FC00FF3892B242EA88226FEA42426FEA5242B7
:10230C0092B22CF80120282202FB0742128B714654
:10231C0001F01CFDB8E0B0F850C000F204421FFA06
:10232C008CFC0B01624432F803C0CCF3090C22F88C
:10233C0003C032F803C01FFA8CFC4CF4004C22F89A
:10234C0003C0B0F8502000F20C4092B21044C25AB4
:10235C00C2F30902C252C25A92B242F40042C252B1
:10236C002046FFF760F9B8F1000F00F08D802823AC
:10237C0003FB07432268197C32F8213023F4E04335
:10238C0023F070031B041B0C43F4404343F0800305
:10239C0022F8213078E030F8212022F4E04222F0BB
:1023AC0070021204120C42F4404242F0800220F8F7
:1023BC00212060E71BB9624688F8343077E70022A9
:1023CC0088F83420C8F830201A4670E712B93CF867
:1023DC00012091E74FEA5208D2073CF8012048BF90
:1023EC0008F1010892B242EA882289E7BCF1010F98
:1023FC0089D1B0F850C000F204421FFA8CFC624440
:10240C00090153527FE70CF1060C39F81CC0CCF3D0
:10241C00090C94454ED9C3F828E01FFA88F82823F4
:10242C0003FB07435B7C002B40F0A680B0F85020E8
:10243C0000F2044C92B20B0194443CF80320C2F31A
:10244C0009022CF803203CF803206FEA42426FEAA1
:10245C00524292B22CF80320B0F8502000F20C40FB
:10246C0092B21044C25AC2F30902C252C25A6FEA63
:10247C0042426FEA524292B2C2522046FFF7D3F860
:10248C00B8F1000F3FF473AF282303FB0743226816
:10249C00197C32F8213023F4E04323F040031B0471
:1024AC001B0C83F0300343F4004343F0800322F809
:1024BC00213050E4A2EB0C029A621FFA88F8002A31
:1024CC00ADD0B8F1000F0DD130F8212022F4E0424C
:1024DC0022F070021204120C42F4404242F08002CC
:1024EC0020F821204FF0280808FB074898F83420E2
:1024FC00012AC9D1D8F8242002EB0C0EC8F824E02C
:10250C00DA6A6244DA62D8F83030D8F82020934284
:10251C004AD39B1AC8F83030282303FB074393F89F
:10252C0011C093B2BCF1000F5AD1B0F8508000F238
:10253C000C4C1FFA88F8C44409013CF801803E2A6F
:10254C00C8F309082CF801803AD94FEA5218D20680
:10255C003CF8012008BF08F1FF3892B242EA882209
:10256C006FEA42426FEA524292B22CF801202822C2
:10257C0002FB0742528BCAE6012B7FF47EAFB0F808
:10258C0050C000F204421FFA8CFC62444FF0000C65
:10259C000B0122F803C0B0F8502000F20C4092B2AC
:1025AC00104420F803C068E71BB9624688F8343041
:1025BC00B2E70022C8F8302088F834201A46ABE77E
:1025CC0012B93CF80120CBE74FEA5208D2073CF88D
:1025DC00012048BF08F1010892B242EA8822C3E701
:1025EC00BCF1010FC3D1B0F8502000F20C4C92B2E8
:1025FC0094440A012CF80230B9E7460512D522683A
:10260C002046B2F8443023F480631B041B0CA2F860
:10261C004430FFF714F82946204605B0BDE8F04FCA
:10262C00FFF778BB41040AD52268B2F8443023F492
:10263C0080431B041B0CA2F84430FFF791BB8204AF
:10264C0005D52268B2F8443023F40053F1E7C304F3
:10265C0019D522682046B2F8403023F004031B043D
:10266C001B0CA2F84030B2F8403023F008031B04D6
:10267C001B0CA2F84030FEF7FFFF2268B2F8443082
:10268C0023F48053D5E7070548D5684623680646EA
:10269C0019461A4603F1200532F8047B954226F8B8
:1026AC00027BF9D1B3F8402092B242F00102A3F8B8
:1026BC004020B3F8402022F001021204120CA3F8BF
:1026CC004020B3F844205605FBD5B3F8442022F43F
:1026DC0080621204120CA3F8442030F8022B21F86B
:1026EC00042B8D42F9D1B3F84020204692B242F02F
:1026FC000802A3F84020B3F8442022F4006212042C
:10270C00120CA3F84420B3F8402092B242F0040219
:10271C00A3F84020FEF7A0FFFFF722BB82050DD5E2
:10272C0022682046B2F8443023F400731B041B0CBF
:10273C00A2F84430FEF77FFFFFF712BBC3057FF50D
:10274C000FAB2268B2F8443023F4807371E700BFFA
:10275C0070B52824054601F00700444311F0800FA2
:10276C0014BF04F1100104F5A87105EB040615BFA4
:10277C0001240024747486F8514114BF4919491975
:10278C00022BCB7008BF0023087008BF0B710A61C5
:10279C0095F89032012B09D00123286885F89032E6
:1027AC0001F028F8002085F8900270BD0220FCE7AB
:1027BC00282301F00702534311F0800F10B5044693
:1027CC0018BF03F1100118440BBF03F5A8710123C6
:1027DC00002309190ABF0919437480F851310A7092
:1027EC0094F89032012B09D00123206884F89032A0
:1027FC0001F060F9002084F8900210BD0220FCE783
:10280C0070B52824002601F007014C43051985F802
:10281C00501104F5A8710144C5E95923C5F86C6140
:10282C0085F85161006801F0A1FA304670BD28238B
:10283C0001F0070103FB0100D0F86C01704770B583
:10284C00282501F007014D4344190026C4E909234A
:10285C000122217405F11001014484F83420236312
:10286C00E6626274006801F081FA304670BD38B5DA
:10287C00037901F00705AB4204462AD311F0800F0F
:10288C004FF028031CD001226B4303F110010344C9
:10289C0001445A7401230D708B7094F890229A4263
:1028AC0019D0206884F8903201F0D7F925B9206846
:1028BC0004F5267101F048FA002084F8900238BD26
:1028CC0000224B4303F5A8710344014483F85121C2
:1028DC00E0E70120F3E70220F1E738B5027901F0D7
:1028EC000F039A42044626D3282301F007025343D0
:1028FC0011F0800F14BF03F1100103F5A8711844F7
:10290C004FF0000515BF012300230919091914BF45
:10291C00437480F851318D700A7094F89032012B09
:10292C000BD00123206884F8903201F0B6F92846C8
:10293C0084F8905238BD0120FCE70220FAE710B56C
:10294C00282411F0800F1BBF01F0070104FB0100CC
:10295C0004FB0100103008BF00F5A87099B21AB939
:10296C000273C180002010BD012283600273F9E75D
:10297C00704700002DE9F341054638B30368DB07C7
:10298C0010D42B689F075ED42B68190700F1958033
:10299C002B685A0700F1C180EB69002B40F02C81A9
:1029AC00002029E0904C636803F00C03042B07D043
:1029BC00636803F00C03082B0AD16368DE0307D5A8
:1029CC0023689C03DDD56B68002BDAD1012013E062
:1029DC006B68B3F5803F12D1236843F480332360D6
:1029EC00FFF71CF8064623689803CAD4FFF716F8BD
:1029FC00801B6428F7D9032002B0BDE8F0819BB995
:102A0C00236823F480332360236823F4802323601A
:102A1C00FFF704F8064623689903B2D5FEF7FEFFCC
:102A2C00801B6428F7D9E6E7B3F5A02F236803D100
:102A3C0043F480232360CFE723F48033236023689F
:102A4C0023F48023CBE7684C636813F00C0F07D09A
:102A5C00636803F00C03082B10D16368DA030DD400
:102A6C0023689B0702D52B69012BAFD123686A69B8
:102A7C0023F0F80343EAC203236085E72A695B4B22
:102A8C006AB101221A60FEF7C9FF064623689F0748
:102A9C00ECD4FEF7C3FF801B0228F7D9ABE71A6012
:102AAC00FEF7BCFF0646236898077FF56DAFFEF76F
:102ABC00B5FF801B0228F6D99DE7AA694A4E4B4BFD
:102ACC00E2B10122C3F88024FEF7A8FF0446736A22
:102ADC009B070DD54FF4FA52454B1B68B3FBF2F331
:102AEC00019300BF019B5A1E0192002BF9D14FE7B5
:102AFC00FEF794FF001B0228E9D97CE7C3F8802479
:102B0C00FEF78CFF0446736A9F077FF541AFFEF713
:102B1C0085FF001B0228F6D96DE7334CE369D8001A
:102B2C0024D40127E36943F08053E361E36903F0A4
:102B3C0080530093009B2F4E3368D90518D5EB6852
:102B4C00012B26D1236A43F001032362FEF766FFB3
:102B5C0041F288380646236A9B073FD5002F3FF485
:102B6C001BAFE36923F08053E36115E70027E2E72D
:102B7C00336843F480733360FEF750FF804633684C
:102B8C00DA05DCD4FEF74AFFA0EB08006428F6D97E
:102B9C0031E7ABB9236A41F2883823F00103236291
:102BAC00236A23F004032362FEF738FF0646236AE8
:102BBC009807D3D5FEF732FF801B4045F7D91AE7AB
:102BCC00052B236A03D143F004032362BAE723F0F5
:102BDC0001032362236A23F00403B6E7FEF71EFF0A
:102BEC00801B4045B7D906E7001002400000424266
:102BFC00A4010020007000402A4C626802F00C0214
:102C0C00082A3ED00022022B274B1A662CD1FEF745
:102C1C0005FF06462368990120D42B6AB3F5803F43
:102C2C0005D16268A96822F400320A436260696ABD
:102C3C0062680B4322F474121343012263601A4B33
:102C4C001A66FEF7EBFE054623689A013FF5A8AE1F
:102C5C00FEF7E4FE401B0228F6D9CCE6FEF7DEFEBA
:102C6C00801B0228D6D9C6E6FEF7D8FE0546236897
:102C7C009B017FF595AEFEF7D1FE401B0228F6D9DD
:102C8C00B9E6012B3FF4A2AE60682B6A00F48032E7
:102C9C009A427FF49BAE6B6A00F47010C01A18BF96
:102CAC000120A9E600100240000042420D4A536880
:102CBC0003F00C01082912D10B48C3F38341DB0349
:102CCC00405C09D55368094AC3F340435043084A52
:102CDC00D35CB0FBF3F07047064B58437047034886
:102CEC00704700BF00100240A258000800127A0082
:102CFC00A058000800093D002DE9F0410D4604469E
:102D0C0010B90120BDE8F081444A136803F00703B1
:102D1C008B4228D321688E0730D4CA0743D43F4A4C
:102D2C00136803F00703AB4265D822683C4D12F0E0
:102D3C00040F6CD1130706D56B68226923F460531A
:102D4C0043EAC2036B60FFF7B1FF6B68354AC3F30C
:102D5C000313D35CD840344B1860344B1868FEF71F
:102D6C001BFE0020CEE7136823F007030B43136010
:102D7C00136803F007038B42C3D1CBE7284B11F048
:102D8C00040F1EBF5A6842F4E0625A60080742BF43
:102D9C005A6842F460525A605A68A06822F0F002F5
:102DAC0002435A60B9E762681D4E012A33681AD192
:102DBC0013F4003FA5D0736841F2883823F0030365
:102DCC0013437360FEF72AFE07467368626803F0CC
:102DDC000C03B3EB820FA2D0FEF720FEC01B4045C4
:102DEC00F3D903208EE7022A02D113F0007FE1E72A
:102DFC0013F0020FDEE7136823F007032B43136075
:102E0C00136803F00703AB427FF47BAF8DE76B686D
:102E1C00E16823F4E0630B436B608BE70020024016
:102E2C0000100240F4580008A40100208401002086
:102E3C0003682DE9F3410546D80721D5364CE369E3
:102E4C00D9002BD40126E36943F08053E361E36995
:102E5C0003F080530193019B304F3B68DA051FD57B
:102E6C00236A6A6813F440732ED1236A6A6823F4C8
:102E7C004073134323621EB1E36923F08053E36173
:102E8C002A68910706D52449A8684B6823F4404367
:102E9C0003434B60D30636D4002012E00026DBE758
:102EAC003B6843F480733B60FEF7B8FD80463B689B
:102EBC00DB05D5D4FEF7B2FDA0EB08006428F6D9EB
:102ECC00032002B0BDE8F08102F440729A42CCD0EB
:102EDC000120134A236AC2F84004002023F44071F5
:102EEC00DF07C2F840042162BFD5FEF797FD41F21F
:102EFC0088380746236A9807B7D4FEF78FFDC01BA6
:102F0C004045F7D9DCE7044AE968536823F48003A9
:102F1C000B435360C0E700BF00100240007000403C
:102F2C000000424270477047036870B5DD681E6947
:102F3C000446B1070DD5AA070BD56FF002021A6132
:102F4C00012202779B699B0769D000F024FC0023C7
:102F5C002377710710D56A070ED56FF0040223682A
:102F6C0020461A61022222779B6913F4407F5CD0C1
:102F7C0000F011FC0023237733070FD528070DD55C
:102F8C006FF00802236820461A6104222277DB695D
:102F9C00990750D000F0FFFB00232377F20610D5E1
:102FAC00EB060ED56FF01002236820461A6108223A
:102FBC002277DB6913F4407F43D000F0ECFB002355
:102FCC002377F00708D5E90706D56FF001022368CF
:102FDC0020461A6100F0BCFB320608D52B0606D53C
:102FEC006FF08002236820461A6100F090F870069A
:102FFC0008D5690606D56FF04002236820461A6191
:10300C00FFF791FFB20622D5AB0620D56FF0200258
:10301C0023682046BDE870401A6100F077B800F0D4
:10302C00B8FB2046FFF77EFF91E700F0B2FB20468D
:10303C00FFF778FF9EE700F0ACFB2046FFF772FF2E
:10304C00AAE700F0A6FB2046FFF76CFFB7E770BDC0
:10305C00174A036890420AD0B0F1804F07D0A2F50E
:10306C009432904203D002F58062904207D14A68B4
:10307C0023F070031343CA6823F4407313434A6963
:10308C0023F08003134303608B68C3620B68836275
:10309C00074B984204BF0B69036301234361036927
:1030AC00DB0742BF036923F001030361704700BFD4
:1030BC00002C014010B5044630B390F83D3003F0BD
:1030CC00FF021BB980F83C2001F058FD0223206858
:1030DC0084F83D30211DFFF7BBFF0123002084F84D
:1030EC00463084F83E3084F83F3084F8403084F821
:1030FC00413084F8423084F8433084F8443084F80A
:10310C00453084F83D3010BD0120FCE77047704716
:10311C00026802F10C0353E8003F23F490730C3265
:10312C0042E8003102680029F2D102F1140353E89D
:10313C00003F23F0010302F1140C4CE8003100298C
:10314C00F3D1036B012B0BD102F10C0353E8003FBD
:10315C0023F0100302F10C0C4CE800310029F3D1E0
:10316C00202380F8423000230363704708B5002306
:10317C00406AC385C38401F041FD08BD704790F8D7
:10318C00423007B5222B42D181680268B1F5805FCD
:10319C00836A3FD1016900293FD15268C2F308020A
:1031AC0023F8022B8362C38D013B9BB2C385002B9A
:1031BC002DD10268D16821F02001D160D16821F4B1
:1031CC008071D160516921F001015161202280F898
:1031DC0042204363026B012A026828D1036302F187
:1031EC000C0353E8003F23F0100302F10C0C4CE8E5
:1031FC0000310029F3D11368DB0605D50191136862
:10320C00019353680193019B818DFFF7B7FF03B0C6
:10321C005DF804FB39B9016929B95268D2B21A7048
:10322C00836A0133BEE7526802F07F02F7E701F0D0
:10323C00DFFCECE7036873B51A6804461607D96817
:10324C005D690AD1960640F18B808D0640F188802D
:10325C0002B0BDE87040FFF792BF15F001054BD0EE
:10326C0012F0010F02F0040363D11BB1636C43F045
:10327C0002036364930749D5636C12F0080F43F0A3
:10328C000403636403D0636C43F008036364636CEE
:10329C00002B5FD0920604D58B0602D52046FFF793
:1032AC006EFF266820467369626C03F0400302F0DF
:1032BC00080253EA02054FD0FFF72AFF73695E0636
:1032CC0045D5226802F1140353E8003F23F0400374
:1032DC00143242E800310029F3D1E06B002836D0DB
:1032EC00894B4363FEF748FC002833D0E06B436BFB
:1032FC0002B0BDE87040184711F4907F30D012F046
:10330C00010F02F0040307D190070DD41007BED5AE
:10331C0001F020032B43B5E7CE050FD4002BF3D1DE
:10332C009607F3D5002DA7D11507B0D511F0200FB6
:10333C00A8E7C80502D4002B98D1F1E7636C5607B7
:10334C0043F001036364EBD5002DDDD08EE72046FE
:10335C0001F054FC02B070BD01F050FC6564F9E75B
:10336C00206B012840F09480D50640F19180C8066E
:10337C0040F18E80002201921A6801925A680192E3
:10338C00019A5A6952064DD5E16B0A68526892B29D
:10339C00002ADFD0A08D9042DCD9E2858A69202AF0
:1033AC0036D003F10C0252E8002F22F4807203F1A4
:1033BC000C0040E800210029F3D103F1140252E87B
:1033CC00002F22F0010203F1140040E80021002933
:1033DC00F3D103F1140252E8002F22F0400203F162
:1033EC00140040E800210029F3D1202284F8422067
:1033FC00216303F10C0252E8002F22F0100203F1BA
:10340C000C0040E800210029F3D1E06BFEF794FB9F
:10341C0002236363E38DA18DC91A89B22046FFF79D
:10342C00ADFE97E7E28DE08DA18D80B292B20028BF
:10343C0090D0891A89B200298CD003F10C0252E881
:10344C00002F22F4907203F10C0545E800200028AF
:10345C00F3D103F1140252E8002F22F0010203F120
:10346C00140545E800200028F3D1202284F84220DE
:10347C00206303F10C0252E8002F22F0100203F13A
:10348C000C0545E800200028F3D102236363C5E74F
:10349C00160628D50D0626D594F84120212A7FF44E
:1034AC0059AFA168226AB1F5805F17D12169A9B91A
:1034BC0032F8021BC1F3080159602262E28C013A16
:1034CC0092B2E284002A7FF445AFDA6822F08002DF
:1034DC00DA60DA6842F04002DA603BE7511C2162A4
:1034EC0012785A60EAE750067FF534AF4A067FF54A
:1034FC0031AFDA68204622F04002DA60202384F8EB
:10350C00413001F078FB25E77931000890F8412033
:10351C0090F84200104370470023C2854364222375
:10352C008285026980F84230816203681AB1DA68D8
:10353C0042F48072DA605A69002042F001025A614A
:10354C00DA6842F02002DA60704770B490F842609A
:10355C00202E06D141B13AB10024046370BCFFF7B0
:10356C00DBBF022070BC70470120FBE7836810B5FD
:10357C0004462BB10322014698470023C4E90233C9
:10358C0010BD836810B5044613B103220146984759
:10359C00204610BD0B4B98420BD0B0F1804F0AD097
:1035AC00A3F59433984208D003F58063984206D073
:1035BC00FEE700207047012070470220704703206F
:1035CC00704700BF002C0140826D70B50446104658
:1035DC00FFF7E0FF0546104601F066FA0023084AA3
:1035EC0004F1640642F82530E36004F1B405B542F9
:1035FC0004D0103D2846FFF7C4FFF8E7204670BD05
:10360C00540D002070B504460846FFF7C3FFA56DA6
:10361C000E4605B1FEE7204B04F10C0243F82020C6
:10362C000E230846C4E91735A165E46001F0F6F9EC
:10363C0004F16400FFF79AFF04F17400FFF796FFA2
:10364C0004F18400FFF792FF04F19400FFF78EFF62
:10365C0004F1A400FFF78AFF4FF6FF73C4E9065389
:10366C008023C4E90055C4E90C55C4E90E55C4E9DE
:10367C001055C4E90855A560266184F82C50A56442
:10368C0084F84C5084F84D506561A36204F110002D
:10369C00BDE87040FFF70EBD540D0020034B1868B9
:1036AC0010B10430FFF740BC704700BF540D002030
:1036BC00FFF7F4BF034B586810B10430FFF734BC6C
:1036CC00704700BF540D0020034B986810B10430B4
:1036DC00FFF72ABC704700BF540D0020034BD8687D
:1036EC0010B10430FFF720BC704700BF540D002010
:1036FC000022C0E90022C0E902227047F8B5044656
:10370C000E4600F1640500F1B40728461035FFF7AA
:10371C00EFFFBD42F9D1002320463146A365FFF7E8
:10372C0071FF2046F8BD826810B50AB901F01DFD85
:10373C00C368BDE81040184708B500B9FEE701F0B2
:10374C006BF90068C36E13B16430FFF7ECFF08BD72
:10375C00FFF7F2BF10B500B9FEE7037F013B072B63
:10376C0010D8DFE803F004140F100F0F0F12012410
:10377C0001F052F9240100686434204483680BB1D1
:10378C00FFF7D1FF10BD0324F2E70424F0E7022475
:10379C00EEE7FFF7DFBFFFF7DDBF84B004A800E959
:1037AC000E00002004B0704703464FF43F42002047
:1037BC00A3F84400A3F840207047B0F8403023F43D
:1037CC007C535B045B0CA0F8403000207047002059
:1037DC0070471FB5044604A800E90E000020012321
:1037EC00A4F84030A4F84000A4F84400A4F8500019
:1037FC0004B010BDF0B50A78CD7830F822400346FD
:10380C0024F4EC4424F070042404240C032D4BD831
:10381C00DFE805F002474543284644F4007448F2BB
:10382C008006344323F8224033F822409E4FA4B242
:10383C003C401443344323F822400C7B03EB021C22
:10384C00002C40F08B80CC884E78640864006EB3FA
:10385C00B3F8501089B26144A1F8004433F8221037
:10386C00490609D533F8221089B2394041F4004198
:10387C0041F0C00123F8221033F822108B4C89B28E
:10388C00012D01EA040101D081F0200141F4004135
:10389C0041F0800123F822104AE044F4C064002077
:1038AC00BDE744F48064FAE70120B8E7B3F8505060
:1038BC000969ADB26544A5F80844B3F850403E29F7
:1038CC00A4B26444B4F80C54C5F30905A4F80C5420
:1038DC002FD94D09CE06B4F80C1408BF05F1FF35ED
:1038EC0089B241EA85216FEA41416FEA514189B2BF
:1038FC00A4F80C1433F822104F040DD533F8221011
:10390C0021F4E04121F070010904090C41F440411B
:10391C0041F0800123F82210654CC2B91A8892B28A
:10392C00224082F4405242F4004242F080021A805B
:10393C00F0BD11B9B4F80C14D5E74D08C907B4F8AB
:10394C000C1448BF013589B241EA8521CFE733F821
:10395C00221089B2214081F4005197E7022D33F8EF
:10396C0022405BD1A4B23C4044F4014444F08004B6
:10397C0023F82240B3F850400E89A4B27608644470
:10398C007600A4F800644E89B3F850407608A4B2CF
:10399C0064447600A4F808644978002948D133F8C7
:1039AC0022104E040DD533F8221021F4E04121F001
:1039BC0070010904090C41F4404141F0800123F8E5
:1039CC00221033F822104D060DD533F8221021F4B5
:1039DC00E04121F070010904090C41F4004141F06F
:1039EC00C00123F8221048F2800433F8221021F48D
:1039FC00804121F070010904090C81F440512143EC
:103A0C0023F8221033F8221021F4E04121F0400178
:103A1C000904090C0C4323F8224089E724F4E244FE
:103A2C0024F070042404240C264323F82260A1E71C
:103A3C0033F822104C040DD533F8221021F4E04158
:103A4C0021F070010904090C41F4404141F080015E
:103A5C0023F8221033F8221049060DD533F8221022
:103A6C0021F4E04121F070010904090C41F40041FA
:103A7C0041F0C00123F8221033F822100B4C89B20C
:103A8C002140012D18BF81F0200141F4004141F08B
:103A9C00800123F8221033F8221021F4804121F008
:103AAC0070010904090CF1E68F8FFFFFBF8FFFFF38
:103ABC008FBFFFFF4A780B78097BD9BB0AB330F86C
:103ACC00232051060DD530F8232022F4E04222F0B9
:103ADC0070021204120C42F4004242F0C00220F8B0
:103AEC00232030F8232022F4E04222F0400212047A
:103AFC00120C42F4004242F0800220F823200020F5
:103B0C00704730F8232052040DD530F8232022F4CE
:103B1C00E04222F070021204120C42F4404242F0D5
:103B2C00800220F8232030F8232022F4804222F057
:103B3C007002DCE7002A4AD130F8232051040DD55D
:103B4C0030F8232022F4E04222F070021204120C0E
:103B5C0042F4404242F0800220F8232030F8232027
:103B6C0052060DD530F8232022F4E04222F07002E8
:103B7C001204120C42F4004242F0C00220F823203E
:103B8C0048F2800130F8232022F4E04222F0700247
:103B9C001204120C42F4004242F0C00220F823201E
:103BAC0030F8232022F4804222F070021204120C0E
:103BBC000A4320F8232030F8232022F4E04222F09C
:103BCC0040021204120C114320F8231097E730F82E
:103BDC00232051040DD530F8232022F4E04222F0AA
:103BEC0070021204120C42F4404242F0800220F89F
:103BFC00232030F8232052060DD530F8232022F450
:103C0C00E04222F070021204120C42F4004242F024
:103C1C00C00220F8232048F2800130F8232022F43F
:103C2C00E04222F070021204120C42F4404242F0C4
:103C3C00800220F8232030F8232022F4E04222F0E6
:103C4C0040021204120C0A4320F8232030F82320DF
:103C5C0022F4804222F07002B3E74B780A788BB1E1
:103C6C0030F8223023F4E04323F040031B041B0CF8
:103C7C0083F0100343F4004343F0800320F8223018
:103C8C000020704730F8223023F4804323F0700377
:103C9C001B041B0C83F48053ECE70B7B3BBB4B7876
:103CAC000A7833B330F822305B060DD530F8223069
:103CBC0023F4E04323F070031B041B0C43F4004378
:103CCC0043F0C00320F82230CB78012B0FD030F812
:103CDC00223023F4E04323F040031B041B0C83F03D
:103CEC00200343F4004343F0800320F822300020EB
:103CFC00704730F822305B040DD530F8223023F4B5
:103D0C00E04323F070031B041B0C43F4404343F0CB
:103D1C00800320F8223030F8223023F4804323F043
:103D2C0070031B041B0C83F44053DAE711B9802396
:103D3C00A0F84C30002070470020704700207047DE
:103D4C00B0F8440080B270470020704700EB42008E
:103D5C00013300F580605B0800EB8303834200D1E4
:103D6C00704731F8022B20F8042BF7E72DE9F047C8
:103D7C004B780446012B0D460A7B40F01881D1F894
:103D8C0010908F6949694F4528BF4F460ABBBFB297
:103D9C00EA883B46FFF7DAFFB4F85000297880B286
:103DAC0004F20442090102448F522A7834F822307A
:103DBC0023F4E04323F040031B041B0C83F030037B
:103DCC00002043F4004343F0800324F82230BDE884
:103DDC00F087EB7895F800E0022B2E6A4FEA0E1C68
:103DEC0040F0D080B14530F82E2080F0B48022F421
:103DFC00E04222F070021204120C42F4014242F032
:103E0C00800220F82E2030F82E80B0F850E0F61BFF
:103E1C0018F040082E6201EB070ABBB21FFA8EFEA7
:103E2C004ED000F20C42724422F80C306A89FFF733
:103E3C008DFFB14536BFF31B00233E466A782B62DB
:103E4C00C5F814A0B3B27ABBB4F85020287892B25B
:103E5C0004F2044100011144425A3E2EC2F30902FD
:103E6C00425214D9425A7709F60608BF07F1FF37B8
:103E7C0092B242EA87226FEA42426FEA524292B20F
:103E8C0042522A8951462046FFF760FF8DE70EB952
:103E9C00425AF0E7F207425A4FEA560748BF013739
:103EAC0092B242EA8722EAE7012AEAD1B4F850003A
:103EBC00297880B204F20442090102448B52E0E7F3
:103ECC0000F20442724422F80C302A89FFF73EFFBC
:103EDC00B14536BFF31B43463E466A782B62C5F8A4
:103EEC0014A0B3B25ABBB4F85020287892B204F2A2
:103EFC000C4100011144425A3E2EC2F309024252B7
:103F0C0010D9425A7709F60608BF07F1FF3792B26B
:103F1C0042EA87226FEA42426FEA524292B242521E
:103F2C006A89AFE70EB9425AF4E7F207425A4FEAF0
:103F3C00560748BF013792B242EA8722EEE7012AC0
:103F4C00EED1B4F85000297880B204F20C42090189
:103F5C0002448B52E4E722F4E24222F07002120493
:103F6C00120C42F4004242F0800220F82E20B0F8ED
:103F7C00503000F204429BB21A44B3B222F80C3017
:103F8C002A8981E7F61B30F82E202E62B0F850609B
:103F9C00BBB25706B6B206D500F20C42324422F838
:103FAC000C306A8970E700F204423244E6E7002ADA
:103FBC003BD18B690969B0F850008B4284BF5A1A07
:103FCC000B462978AA6180B204F20C420901024422
:103FDC00885A3E2BC0F3090088521AD95809DE06BC
:103FEC008B5A08BF00F1FF309BB243EA80236FEA83
:103FFC0043436FEA53439BB28B522A7834F82230F6
:10400C0023F4804323F070031B041B0C83F44053F4
:10401C00D6E60BB98B5AEAE75808DB078B5A48BF30
:10402C0001309BB243EA8023E5E7CA78022A40F0CC
:10403C008E80002B31D1B0F850200B7892B200F268
:10404C0004411B011144CA5A00F20C46C2F3090286
:10405C00CA522A693E2A3DD95709BC46C85A12F0A1
:10406C001F0208BF07F1FF3780B240EA8720774F65
:10407C00384380B2C852B4F8501089B23144C85A8F
:10408C00C0F30900C8526046002A5DD0CA5A92B2E9
:10409C0042EA80223A4392B2CA52EB69002BACD06E
:1040AC0044F240032A7834F8221003EA01008B43CF
:1040BC0001D00028A1D134F8223023F4E04323F0BE
:1040CC0070031B041B0C43F4004343F0C00324F89F
:1040DC00223092E7BAB9CA5A6FEA42426FEA5242A8
:1040EC0092B2CA52B0F8502092B23244D15AD0187F
:1040FC00C1F30901D15203886FEA43436FEA53437A
:10410C009BB20380C9E7C85A4FEA520E12F001075E
:10411C00F44680B218BF0EF1010E40EA8E2080B238
:10412C00C852B4F8501089B23144CE5AC818C6F3EC
:10413C000906CE52002ADED0624607B1013203884E
:10414C009BB243EA8223DBE70CF1FF309EE7012AA6
:10415C007AD18A6909698A4294BF0020501AA861F1
:10416C0088BF0A46002B7FF448AFB4F850102B7868
:10417C0089B204F204401B010844C15A3E2AC1F31F
:10418C000901C15204F20C4621D95709BC46C15A47
:10419C0012F01F0208BF07F1FF3789B241EA8721ED
:1041AC002A4F394389B2C152B4F8501089B2314404
:1041BC00C85AC0F30900C8526046002A41D0CA5AF6
:1041CC0092B242EA80223A4392B2CA5215E7BAB985
:1041DC00C25A6FEA42426FEA524292B2C252B4F8E9
:1041EC00502092B23244D15AD018C1F30901D152A5
:1041FC0003886FEA43436FEA53439BB20380FCE6A8
:10420C00C15A4FEA520E12F00107F44689B218BF98
:10421C000EF1010E41EA8E2189B2C152B4F8501050
:10422C0089B23144CE5AC818C6F30906CE52002AB8
:10423C00DED0624607B1013203889BB243EA822387
:10424C00DBE70CF1FF30BAE70120C0E50080FFFF8F
:10425C0000EB4200F0B500F580605D080C460746A7
:10426C002E46023436B9DB0744BF30F8253001F84E
:10427C001530F0BD37F8042B013E92B204F8022C35
:10428C00120A04F8012CECE700F07ABF00F080BFB2
:10429C0086B0042841D8DFE800F003101C28340055
:1042AC001F4B20489A6942F004029A619B6903F003
:1042BC0004030193019B06B07047194B1A489A6985
:1042CC0042F008029A619B6903F008030293029B77
:1042DC00F1E7134B15489A6942F010029A619B69F9
:1042EC0003F010030393039BE5E70D4B10489A6909
:1042FC0042F020029A619B6903F020030493049B13
:10430C00D9E7074B0B489A6942F040029A619B69C6
:10431C0003F040030593059BCDE70020CBE700BFDE
:10432C000010024000080140000C01400010014048
:10433C000014014000180140F8B51449074600F07C
:10434C003EFBFFF727F9124E044656F8203073B99E
:10435C00B420FFF799FF0D490546384600F02FFBB6
:10436C0001462846FFF7CAF956F824301D6056F866
:10437C0024301C6844B12046FFF726F92046BDE8DE
:10438C00F840B421FFF782BFF8BD00BFE855000824
:10439C00540D0020FDF742BB704708B5FDF732FB0A
:1043AC00FDF7B5FBFFF7F8FF08BD70470F4B84B066
:1043BC00DA6942F08052DA61DA6902F080520192D5
:1043CC00019A9A6942F001029A619A6902F001021B
:1043DC000292029A5A6942F040025A615B6903F0F8
:1043EC0040030393039B04B0704700BF00100240CE
:1043FC000C4BD3F8FC20D2015EBFD3F8FC2042F06A
:10440C008072C3F8FC200022074B5A601A6842F0F5
:10441C0001021A6000BF00BF00BF5868B0FA80F0FC
:10442C004009704700ED00E0001000E008B5FFF710
:10443C00BDFFFFF7DDFFFDF7D3FAFFF7B6FFFDF782
:10444C006CFA0348FDF768FBBDE80840FDF75CBA61
:10445C009C0100200023C0E90033C0E902337047FF
:10446C000023012803F101020AD11422DBB25343C9
:10447C00054A181D1044816829B11A44136918475C
:10448C0013464008EDE77047640D00200120FDF74E
:10449C00B9BB0220FDF7B6BB0420FDF7B3BB082067
:1044AC00FDF7B0BB1020FDF7ADBB38B505242025BA
:1044BC00A8B2FDF7A7FB013C4FEA4505F8D138BD82
:1044CC0038B506244FF48065A8B2FDF79BFB013C80
:1044DC004FEA4505F8D138BD344A08B510460623D5
:1044EC0000F8043BFFF7B6FF072302F11800137521
:1044FC00FFF7B0FF082302F12C0082F82830FFF7F9
:10450C00A9FF092302F1400082F83C30FFF7A2FF1B
:10451C000A23172102F1540082F85030FFF79AFF5A
:10452C0002F1680082F86410FFF794FF02F17C003E
:10453C0082F87810FFF78EFF02F1900082F88C1051
:10454C00FFF788FF02F1A40082F8A010FFF782FFAA
:10455C0082F8B410282102F1B800FFF77BFF02F1BA
:10456C00CC0082F8C810FFF775FF02F1E00082F86A
:10457C00DC10FFF76FFF02F1F40082F8F010FFF788
:10458C0069FF02F5847082F80411FFF763FF02F5EE
:10459C008E7082F81811FFF75DFFBDE8084002F538
:1045AC00987082F82C11FFF755BF00BF640D0020E6
:1045BC0038B5054CA4F5A075143C201DFEF7E1FFA1
:1045CC00AC42F9D138BD00BFA40E00207B4B82B0A9
:1045DC009A69013842F001029A619B6903F0010368
:1045EC000193019B23282CD8DFE810F024002D0028
:1045FC0034003B00400047004C00530058005F0063
:10460C0068006D0074007D008200890092009B00A0
:10461C00A000A700B000B500BC002B002B002B00A5
:10462C00C100C8002B002B002B002B00CD00D200AA
:10463C00D900E000624A536843F0E06343F00103A1
:10464C00536002B070475E4A536823F0010343F095
:10465C00E063F5E75A4A536843F0E06343F0020322
:10466C00EEE7574A536823F00203F0E7544A5368C5
:10467C0043F0E06343F00403E2E7514A536823F04C
:10468C000403E4E74E4A536843F0E06343F0080345
:10469C00D6E74B4A536823F00803D8E7484A5368D7
:1046AC0043F0E06343F03003CAE7454A536823F014
:1046BC00300343F0E06343F01003C1E7404A536812
:1046CC0023F03003C3E73E4A536843F0E06343F002
:1046DC00C003B5E73A4A536823F0C00343F0E063E4
:1046EC0043F04003ACE7364A536823F0C003AEE70F
:1046FC00334A536843F0E06343F44073A0E7304A15
:10470C00536823F4407343F0E06343F4007397E77A
:10471C002B4A536823F4407343F0E06343F48073F3
:10472C008EE7274A536823F4407390E7244A536872
:10473C0043F0E06343F4406382E7214A536823F477
:10474C00406343F0E06343F4006379E71C4A536829
:10475C0023F440637BE71A4A536843F0E06343F465
:10476C0080536DE7164A536823F480536FE7144A5D
:10477C00536843F0E06343F4004361E7104A536825
:10478C0023F4004363E70E4A536823F0E06357E7D2
:10479C000B4A536823F0E06343F0807350E7084AF8
:1047AC00536823F0E06343F0007349E7044A53680D
:1047BC0023F0E06343F0806342E700BF0010024047
:1047CC000000014091FAA1F3B3FA83F370B50D0E1A
:1047DC000F2691FAA1F1B1FA81F144599B0006FA26
:1047EC0003F3890024EA03048A402243425170BD3A
:1047FC0091FAA1F3B3FA83F370B50D0E042691FA76
:10480C00A1F1B1FA81F144599B0006FA03F3890036
:10481C0024EA03048A402243425170BD431C04D055
:10482C000C3151F80C3C5A1C01D1002070478342CA
:10483C0001F10C01F5D1012070470000431C2DE95A
:10484C00F34107460E4600D1FEE7544B00F00F0231
:10485C00C0F3031001F0070853F82240FFF718FDCE
:10486C00B8F1010F054615D194FAA4F3B3FA83F30A
:10487C000321200E2A589B0001FA03F322EA0302BB
:10488C0094FAA4F3B3FA83F39B0099401143295093
:10489C00012245E0C6F30620B8F1030F0AD801A3A4
:1048AC0053F828F0C34800089D4800082349000825
:1048BC0045490008FEE7FFF789FE082221462846F5
:1048CC00FFF780FF94FAA4F2230EB2FA82F2E958B1
:1048DC000F2392009340C6F301160B4094FAA4F2F6
:1048EC0062BB022E41D12E4B9A6942F001029A61B1
:1048FC009B6903F001030193019BA7F10D03012BAD
:10490C003FD8284A536823F0E06343F08063536038
:10491C0002B0BDE8F0817F2801D0FFF757FE0922D5
:10492C0021462846FFF74EFF16F0080218BF042256
:10493C002146FFF75DFFC5E70022BFE7B2FA82F21E
:10494C00022E4FEA820223FA02F307D1082BCAD1B6
:10495C00042221462846FFF735FFC4E7042B04D177
:10496C00082221462846FFF72DFF230A93FAA3F3CA
:10497C00B3FA83F3EA689E4022EA14221643EE60EF
:10498C00B1E70F2F02D0133F012FC1D8054A53684E
:10499C0023F0E06343F00073B9E700BFB45800089C
:1049AC0000100240000001400B685A1C01D100208D
:1049BC007047834201D1486870470C31F4E7431CBF
:1049CC0001D0FFF7F1BF0020704700000F4B1A68B1
:1049DC0042F001021A6059680D4A0A405A601A687E
:1049EC0022F0847222F480321A601A6822F4802237
:1049FC001A605A6822F4FE025A604FF41F029A6041
:104A0C004FF00062034B9A60704700BF00100240E9
:104A1C000000FFF800ED00E0043870471E4B84B036
:104A2C0098420CD103F564439A6942F400629A618E
:104A3C009B6903F400630093009B04B07047B0F1D2
:104A4C00804F0AD1154BDA6942F00102DA61DB6959
:104A5C0003F001030193019BEFE7114B98420BD13B
:104A6C0003F50333DA6942F00202DA61DB6903F021
:104A7C0002030293029BE0E70A4B9842DDD103F557
:104A8C000233DA6942F00402DA61DB6903F00403F1
:104A9C000393039BD1E700BF002C014000100240A0
:104AAC000004004000080040104B984205D1104A09
:104ABC00936923F4006393617047B0F1804F05D183
:104ACC000B4AD36923F00103D3617047094B984219
:104ADC0004D1074AD36923F00203F5E7064B984249
:104AEC00F3D1034AD36923F00403EDE7002C014012
:104AFC00001002400004004000080040431C10D08D
:104B0C000C4B984210D007D8B0F1804F0ED0A3F5C3
:104B1C00806398420CD0FEE7074B9842FBD11920DA
:104B2C0070476FF00D0070471E2070471C207047B7
:104B3C001D20704700080040002C0140431C10D081
:104B4C000C4B984210D007D8B0F1804F0ED0A3F583
:104B5C00806398420CD0FEE7074B9842FBD11B2098
:104B6C0070476FF00D0070471E2070471C20704777
:104B7C001D20704700080040002C014038B5044649
:104B8C000068FFF74BFFFFF7B9FFD4E91312FCF7EE
:104B9C005DFF2068FFF7B2FFFCF788FF2268104624
:104BAC00FFF7CCFF05461046FFF7A8FF85420BD058
:104BBC00D4E913122846FCF749FF2068FFF7BEFF23
:104BCC00BDE83840FCF772BF38BD000008B5074B94
:104BDC0090F8652053F82200FEF798FC00F02200B4
:104BEC00A0F122035842584108BD00BFA40E00207A
:104BFC00836C04381847C36C0438184730B5044626
:104C0C0050F8043985B01D6815F0010512D000224A
:104C1C0000921A6800925B680093009BFFF7D6FF26
:104C2C0040BB0122204604F1620105B0BDE83040D2
:104C3C00FEF78BBC196811F0020106D001951A68B9
:104C4C0001925B680193019BE8E71A6812F0040279
:104C5C0006D002911A6802925B680293029BDDE710
:104C6C0019680907DAD503921A6803925B680393F3
:104C7C00039BD3E705B030BD08B52520FCF738FF02
:104C8C00024B1868BDE80840FEF7D4BAA40E002009
:104C9C00262008B5FCF72CFF034B586818B1BDE86B
:104CAC000840FEF7C7BA08BDA40E0020272008B59F
:104CBC00FCF71EFF034B986818B1BDE80840FEF7DF
:104CCC00B9BA08BDA40E002003460A4910B50868FD
:104CDC000344EFF30882934205D90C224FF0FF30C6
:104CEC00054B1A6010BD054A054C121B9342F4D2B9
:104CFC000B60F7E7A80100200C13002000500020E7
:104D0C0000040000FEE700001622024B4FF0FF30BB
:104D1C001A6070470C1300200120704749220D4B7C
:104D2C0010B51A7051225A7040229A700022043326
:104D3C0003F8012C00F58074018842880430A1F539
:104D4C000061A2F50062A04219805A8003F10403AD
:104D5C00F2D110BDB20E002010B54FF4E131424833
:104D6C00FBF7A8FA0121C72000F054F90021C72055
:104D7C0000F0AEF9012400203C4B3D499A6942F405
:104D8C00007242F001029A610A6822F0FF020A6086
:104D9C005A6822F440425A605A6842F400425A60FF
:104DAC00344A506094601061506310201063906816
:104DBC004007FCD490682F4C40F004009060A06831
:104DCC0010F00400FBD19A6942F004029A610A685F
:104DDC0022F070620A600A6842F030620A600421B4
:104DEC00DA6942F00202DA61234A9062D162D16A36
:104DFC001D48013149085163916941F06801916185
:104E0C00116A41F00101116201215161116841F0F7
:104E1C00810111605A6942F001025A61174B184A1C
:104E2C001A61184A5A614FF48072DA6043F2A00298
:104E3C009A60A26842F48572A2609A6842F00102FC
:104E4C009A60FBF739FA70B10F49074800F06CF81B
:104E5C000E49054800F05CF8BDE810400A220C49E8
:104E6C00014800F094B810BD180200200010024058
:104E7C0000080140002401400004004000000240F2
:104E8C004C240140B60F0020045900082959000891
:104E9C00400D030038B5104B104DDC682B88A4B2C4
:104EAC00A34218D0A4F18103062B0FD80C48FFF7AE
:104EBC0035FF0C482C80FBF7FFF960B1BDE838409A
:104ECC004FF4827208490748FBF754B97F2C01D87C
:104EDC000648ECE72C8038BD00000240B00E0020E4
:104EEC00B610002018020020B20E0020B60F0020D1
:104EFC0070B505460C46084649B1FBF701F92B681D
:104F0C00024621462846BDE870405B68184770BDD4
:104F1C0008B5FFF7EDFF08BD08B50249FFF7E8FF3C
:104F2C0008BD00BF3659000838B50546FFF7E0FF4D
:104F3C0004462846FFF7F0FF204438BD0023012A21
:104F4C0098BF0A22F0B58BB00C468DF8243009A915
:104F5C00B4FBF2F6274602FB1645EBB2092D94BFC3
:104F6C0030333733DBB2BA42344601F8013DEFD966
:104F7C00FFF7BEFF0BB0F0BD10B422B9026810BC35
:104F8C001268C9B2104710BCD2B2FFF7D7BF38B500
:104F9C000546FFF7F1FF04462846FFF7BDFF204406
:104FAC0038BD08B50320FCF73FFDBDE8084000F014
:104FBC00D9B808B5AFF30080FFF7CEFEFFF76AFF54
:104FCC00AFF30080FAE70000FFF700FD0B480C4937
:104FDC000C4A002302E0D458C4500433C4188C4249
:104FEC00F9D3094A094C002301E013600432A242B0
:104FFC00FBD300F0DFF9FFF7DCFF70470000002067
:10500C00FC0100205C590008FC0100201413002056
:10501C00FEE70000C3B2222B2DE9F0410D462AD841
:10502C00274A00F4E06452F823301C43621C44D03D
:10503C00244EC4F3031756F8273004F00F0823FA54
:10504C0008F3DB0710D520461F49FFF7E7FB10B12B
:10505C002046FFF771F9012256F8273002FA08F2C0
:10506C0023EA020346F82730052D15D8DFE805F0B2
:10507C0015211B1D231F00F0C002C02A1DD1C92BF6
:10508C001BD8124B00F03F0253F822200C4B00F4BB
:10509C00E06453F82230C8E7FEE720212046BDE843
:1050AC00F041FFF7CBBB1021F8E70021F6E72321F5
:1050BC00F4E72121F2E72921F0E7BDE8F08100BFF8
:1050CC0014580008B8110020E8550008EC570008E7
:1050DC00C3B2222B1BD8174A00F4E06052F82330DD
:1050EC001843431C25D0C0F30313042B98BF124A5A
:1050FC0000F00F0098BF52F82320104B88BF0022FD
:10510C0053F82030C3F30F2391B11361704700F0B3
:10511C00C002C02A0DD1C92B0BD8094B00F03F029D
:10512C0053F82220034B00F4E06053F82230D7E709
:10513C00536170471458000888010020B4580008C7
:10514C00EC570008FFF726B938B5044648B1FFF70D
:10515C0021F9054600F008F8FFF71CF9431BA342A0
:10516C00F8D338BDFFF762B9704708B500F000F806
:10517C00062008B500F0F2F80120FFF7C3FD00008F
:10518C00024B0146186800F02DB800BFAC0100209E
:10519C00024B0146186800F041B900BFAC01002079
:1051AC0070B50F4E0C463168054611B900F0F2F897
:1051BC0030602146284600F0EDF8431C03D14FF037
:1051CC00FF34204670BDC41C24F00304A042F8D068
:1051DC00211A284600F0DEF80130F2D1EFE700BFCB
:1051EC00CC1100202DE9F843CD1C25F00305083522
:1051FC000C2D38BF0C25002D064601DBA94204D925
:10520C000C2333600020BDE8F883DFF8D48000F075
:10521C0069F8D8F800301C4644BB29463046FFF7E5
:10522C00BFFF431C044658D1D8F800402746002F36
:10523C0043D1002C4BD023683946304604EB03098C
:10524C0000F0A8F8814542D1216830466D1A2946F4
:10525C00FFF7A6FF01303AD023682B442360D8F81F
:10526C0000305A6862BBC8F800700FE02268521B0D
:10527C0020D40B2A17D96119A342256018BF596095
:10528C00636808BFC8F8001062514B60304600F0EC
:10529C002FF804F10B00231D20F00700C21A1CBFCD
:1052AC001B1AA350AFE76268A3420CBFC8F80020DA
:1052BC005A60EBE723466468AEE73C467F68B6E786
:1052CC001A465B68A342FBD100235360DEE70C2334
:1052DC003046336000F00CF894E70560D6E700BF69
:1052EC00D0110020014800F089B800BF1013002035
:1052FC00014800F084B800BF10130020034602449C
:10530C00934200D1704703F8011BF9E71F2938B508
:10531C0005460C4604D9162303604FF0FF3038BD08
:10532C00C26B12B152F821304BB9284600F030F85C
:10533C00224601462846BDE8384000F017B8012B3C
:10534C000AD0591C03D1162303600120E7E7002182
:10535C00204642F8241098470020E0E7024B014613
:10536C001868FFF7D3BF00BFAC01002038B500238D
:10537C00064D0446084611462B60FFF7C5FC431C3E
:10538C0002D12B6803B1236038BD00BF0C13002081
:10539C00FFF7C2BC38B50023054D044608462B6008
:1053AC00FFF792FC431C02D12B6803B1236038BD7C
:1053BC000C13002070B500260C4D0D4C641BA41072
:1053CC00A64209D100F072F800260A4D0A4C641B63
:1053DC00A410A64205D170BD55F8043B9847013680
:1053EC00EEE755F8043B98470136F2E744590008BC
:1053FC004459000844590008545900087047704734
:10540C000A44914200F1FF3300D1704710B511F8F6
:10541C00014B914203F8014FF9D110BD38B5054647
:10542C00002940D051F8043C0C1F002BB8BFE418E5
:10543C00FFF758FF1C4A136833B9636014602846A1
:10544C00BDE83840FFF754BFA34208D920682118A3
:10545C008B4201BF19685B6809182160EDE71A4699
:10546C005B680BB1A342FAD911685018A0420BD15A
:10547C0020680144501883421160E0D118685B68C1
:10548C00084410605360DAE702D90C232B60D6E78E
:10549C00206821188B4201BF19685B6809182160CC
:1054AC0063605460CBE738BDD0110020F8B500BF65
:1054BC00F8BC08BC9E467047F8B500BFF8BC08BCE9
:0454CC009E46704741
:1054D00000000000000000005D01000881010008DC
:1054E00075010008AD020008C9010008D5010008D7
:1054F000A1020008ED0100083902000853544D696B
:1055000063726F656C656374726F6E69637300427A
:105510004C554550494C4C5F46313033433820435D
:10552000444320696E204853204D6F646500424C0F
:10553000554550494C4C5F46313033433820434445
:105540004320696E204653204D6F646500424C55E0
:105550004550494C4C5F4631303343382043444337
:1055600020436F6E66696700424C554550494C4C6C
:105570005F4631303343382043444320496E7465DD
:1055800072666163650000000000000020000000FA
:10559000000000008000000060000000000000002B
:1055A00001000000E000A0000100000082000000F7
:1055B000200100000000000083000000280100001E
:1055C000000000000B000000005C00402000000014
:1055D0000C000000005C004020000000FFFFFFFF07
:1055E000000000000000000000000000000000407B
:1055F0001280000000010000000000401290000036
:105600000100000000000040121201000101000032
:1056100000000040121001000200000000000040E5
:1056200012920100020100000000004012910100EE
:1056300003000000000000401212020003010000FD
:1056400000000040121102000600000000040040AB
:105650001295000007000000002C0140128D100080
:1056600007010000000400401215010008000000BE
:10567000002C0140128E000008010000002C0140A7
:10568000128D000009000000002C0140120E0100E4
:1056900009010000002C0140120D01000A00000069
:1056A000002C0140128E01000A010000002C014074
:1056B000128D01000B000000002C0140120E0200B0
:1056C0000B010000002C0140120D02000F00000031
:1056D00000000040129100000F0100000000004097
:1056E000128F000010000000002C0140120D11006C
:1056F000100100000004004012950100100200009B
:10570000000400401294010011000000002C014030
:10571000128D11001101000000040040121502005A
:1057200011020000000400401214020013000000E7
:1057300000000040121101001301000000000040B1
:10574000120F010014000000000400401294000039
:1057500015000000000400401214010016000000B3
:1057600000080040129700001700000000080040E9
:1057700012170100180000000008004012970100F5
:105780001900000000080040121702001A00000073
:1057900000000040129001001A01000000000040CB
:1057A000128F01001B0000000000004012100200D8
:1057B0001B01000000000040120F02001D0000004D
:1057C000002C0140128E10001E000000002C014031
:1057D000120E11001F000000002C0140128E11005B
:1057E000FFFFFFFF000000000000000014000000A9
:1057F000150000001600000017000000180000004F
:10580000190000001A0000001B0000001C0000002E
:105810001D00000019000000180000001700000023
:105820001600000015000000140000001300000026
:105830000F0000000C0000000B0000000A00000038
:1058400009000000080000001F0000001E0000000A
:105850001D0000001C0000002D0000002E000000B4
:105860002F00000000000000010000000200000006
:105870000300000004000000050000000600000016
:105880000700000010000000110000001A000000D6
:105890001B000000120000000D0000000E000000C0
:1058A000010202030405060708090A0B0C0D0E0F7E
:1058B00010100000010100000202000004040000BA
:1058C00008080000101000002020000040400000E8
:1058D00080800000010001040200020404000404AE
:1058E00008000804100010042000200440004004B8
:1058F000800080040000000000000000010203049A
:1059000006070809534452206469726563742D6365
:105910006F6E76657273696F6E2072656365697606
:1059200065722072656164790073616D706C655F8A
:0C593000726174653D000D0A000000006B
:08593C00D0A7FF7F010000006D
:10594400AF4F000841010008D9020008E5440008EF
:085954001D010008BD4500081B
:10595C0009074300020104C03209040000010202DD
:10596C00000005240010010524010001042402029A
:10597C000524060001070583030800100904010033
:10598C00020A000000070501024000000705820220
:10599C004000000009024300020100C0320904006B
:1059AC000001020200000524001001052401000181
:1059BC0004240202052406000107058303080010D5
:1059CC0009040100020A0000000705010240000062
:1059DC00070582024000000009024300020100C0DA
:1059EC003209040000010202000005240010010528
:1059FC00240100010424020205240600010705838A
:105A0C000308001009040100020A00000007050148
:105A1C00020002000705820200020000E5090008EE
:105A2C0095090008A508000800000000ED06000814
:105A3C0041080008090800080000000000000000F0
:105A4C0000000000C10700087907000831070008B2
:105A5C00250700080A0600020000004001000000B3
:105A6C0000C2010000000800F50B00086D0B0008D7
:105A7C00710B0008590D0008010D000801011A03F3
:105A8C00000000000000000000000000000000000A
:105A9C0000000000000000000403090412010002D1
:105AAC00020200408304405700020102030100007F
:105ABC00E1170008ED1700086918000885180008A0
